{
  "_format": "hh-sol-artifact-1",
  "contractName": "ProfileImageNfts",
  "sourceName": "contracts/MintProfileImage.sol",
  "abi": [
    {
      "inputs": [],
      "stateMutability": "nonpayable",
      "type": "constructor"
    },
    {
      "anonymous": false,
      "inputs": [
        {
          "indexed": true,
          "internalType": "address",
          "name": "owner",
          "type": "address"
        },
        {
          "indexed": true,
          "internalType": "address",
          "name": "approved",
          "type": "address"
        },
        {
          "indexed": true,
          "internalType": "uint256",
          "name": "tokenId",
          "type": "uint256"
        }
      ],
      "name": "Approval",
      "type": "event"
    },
    {
      "anonymous": false,
      "inputs": [
        {
          "indexed": true,
          "internalType": "address",
          "name": "owner",
          "type": "address"
        },
        {
          "indexed": true,
          "internalType": "address",
          "name": "operator",
          "type": "address"
        },
        {
          "indexed": false,
          "internalType": "bool",
          "name": "approved",
          "type": "bool"
        }
      ],
      "name": "ApprovalForAll",
      "type": "event"
    },
    {
      "anonymous": false,
      "inputs": [
        {
          "indexed": true,
          "internalType": "address",
          "name": "previousOwner",
          "type": "address"
        },
        {
          "indexed": true,
          "internalType": "address",
          "name": "newOwner",
          "type": "address"
        }
      ],
      "name": "OwnershipTransferred",
      "type": "event"
    },
    {
      "anonymous": false,
      "inputs": [
        {
          "indexed": true,
          "internalType": "address",
          "name": "from",
          "type": "address"
        },
        {
          "indexed": true,
          "internalType": "address",
          "name": "to",
          "type": "address"
        },
        {
          "indexed": true,
          "internalType": "uint256",
          "name": "tokenId",
          "type": "uint256"
        }
      ],
      "name": "Transfer",
      "type": "event"
    },
    {
      "inputs": [
        {
          "internalType": "address",
          "name": "to",
          "type": "address"
        },
        {
          "internalType": "uint256",
          "name": "tokenId",
          "type": "uint256"
        }
      ],
      "name": "approve",
      "outputs": [],
      "stateMutability": "nonpayable",
      "type": "function"
    },
    {
      "inputs": [
        {
          "internalType": "address",
          "name": "owner",
          "type": "address"
        }
      ],
      "name": "balanceOf",
      "outputs": [
        {
          "internalType": "uint256",
          "name": "",
          "type": "uint256"
        }
      ],
      "stateMutability": "view",
      "type": "function"
    },
    {
      "inputs": [],
      "name": "getAlltoken",
      "outputs": [
        {
          "components": [
            {
              "internalType": "uint256",
              "name": "id",
              "type": "uint256"
            },
            {
              "internalType": "string",
              "name": "uri",
              "type": "string"
            },
            {
              "internalType": "string",
              "name": "space",
              "type": "string"
            }
          ],
          "internalType": "struct ProfileImageNfts.RenderToken[]",
          "name": "",
          "type": "tuple[]"
        }
      ],
      "stateMutability": "view",
      "type": "function"
    },
    {
      "inputs": [
        {
          "internalType": "uint256",
          "name": "tokenId",
          "type": "uint256"
        }
      ],
      "name": "getApproved",
      "outputs": [
        {
          "internalType": "address",
          "name": "",
          "type": "address"
        }
      ],
      "stateMutability": "view",
      "type": "function"
    },
    {
      "inputs": [
        {
          "internalType": "address",
          "name": "owner",
          "type": "address"
        },
        {
          "internalType": "address",
          "name": "operator",
          "type": "address"
        }
      ],
      "name": "isApprovedForAll",
      "outputs": [
        {
          "internalType": "bool",
          "name": "",
          "type": "bool"
        }
      ],
      "stateMutability": "view",
      "type": "function"
    },
    {
      "inputs": [
        {
          "internalType": "address",
          "name": "recipents",
          "type": "address"
        },
        {
          "internalType": "string",
          "name": "_uri",
          "type": "string"
        }
      ],
      "name": "mint",
      "outputs": [
        {
          "internalType": "uint256",
          "name": "",
          "type": "uint256"
        }
      ],
      "stateMutability": "nonpayable",
      "type": "function"
    },
    {
      "inputs": [],
      "name": "name",
      "outputs": [
        {
          "internalType": "string",
          "name": "",
          "type": "string"
        }
      ],
      "stateMutability": "view",
      "type": "function"
    },
    {
      "inputs": [],
      "name": "owner",
      "outputs": [
        {
          "internalType": "address",
          "name": "",
          "type": "address"
        }
      ],
      "stateMutability": "view",
      "type": "function"
    },
    {
      "inputs": [
        {
          "internalType": "uint256",
          "name": "tokenId",
          "type": "uint256"
        }
      ],
      "name": "ownerOf",
      "outputs": [
        {
          "internalType": "address",
          "name": "",
          "type": "address"
        }
      ],
      "stateMutability": "view",
      "type": "function"
    },
    {
      "inputs": [],
      "name": "renounceOwnership",
      "outputs": [],
      "stateMutability": "nonpayable",
      "type": "function"
    },
    {
      "inputs": [
        {
          "internalType": "address",
          "name": "from",
          "type": "address"
        },
        {
          "internalType": "address",
          "name": "to",
          "type": "address"
        },
        {
          "internalType": "uint256",
          "name": "tokenId",
          "type": "uint256"
        }
      ],
      "name": "safeTransferFrom",
      "outputs": [],
      "stateMutability": "nonpayable",
      "type": "function"
    },
    {
      "inputs": [
        {
          "internalType": "address",
          "name": "from",
          "type": "address"
        },
        {
          "internalType": "address",
          "name": "to",
          "type": "address"
        },
        {
          "internalType": "uint256",
          "name": "tokenId",
          "type": "uint256"
        },
        {
          "internalType": "bytes",
          "name": "data",
          "type": "bytes"
        }
      ],
      "name": "safeTransferFrom",
      "outputs": [],
      "stateMutability": "nonpayable",
      "type": "function"
    },
    {
      "inputs": [
        {
          "internalType": "address",
          "name": "operator",
          "type": "address"
        },
        {
          "internalType": "bool",
          "name": "approved",
          "type": "bool"
        }
      ],
      "name": "setApprovalForAll",
      "outputs": [],
      "stateMutability": "nonpayable",
      "type": "function"
    },
    {
      "inputs": [
        {
          "internalType": "bytes4",
          "name": "interfaceId",
          "type": "bytes4"
        }
      ],
      "name": "supportsInterface",
      "outputs": [
        {
          "internalType": "bool",
          "name": "",
          "type": "bool"
        }
      ],
      "stateMutability": "view",
      "type": "function"
    },
    {
      "inputs": [],
      "name": "symbol",
      "outputs": [
        {
          "internalType": "string",
          "name": "",
          "type": "string"
        }
      ],
      "stateMutability": "view",
      "type": "function"
    },
    {
      "inputs": [
        {
          "internalType": "uint256",
          "name": "tokenId",
          "type": "uint256"
        }
      ],
      "name": "tokenURI",
      "outputs": [
        {
          "internalType": "string",
          "name": "",
          "type": "string"
        }
      ],
      "stateMutability": "view",
      "type": "function"
    },
    {
      "inputs": [
        {
          "internalType": "address",
          "name": "from",
          "type": "address"
        },
        {
          "internalType": "address",
          "name": "to",
          "type": "address"
        },
        {
          "internalType": "uint256",
          "name": "tokenId",
          "type": "uint256"
        }
      ],
      "name": "transferFrom",
      "outputs": [],
      "stateMutability": "nonpayable",
      "type": "function"
    },
    {
      "inputs": [
        {
          "internalType": "address",
          "name": "newOwner",
          "type": "address"
        }
      ],
      "name": "transferOwnership",
      "outputs": [],
      "stateMutability": "nonpayable",
      "type": "function"
    }
  ],
  "bytecode": "0x60806040523480156200001157600080fd5b506040518060400160405280601081526020017f50726f66696c65496d6167654e667473000000000000000000000000000000008152506040518060400160405280600381526020017f50494e000000000000000000000000000000000000000000000000000000000081525081600090816200008f919062000412565b508060019081620000a1919062000412565b505050620000c4620000b8620000ca60201b60201c565b620000d260201b60201c565b620004f9565b600033905090565b6000600660009054906101000a900473ffffffffffffffffffffffffffffffffffffffff16905081600660006101000a81548173ffffffffffffffffffffffffffffffffffffffff021916908373ffffffffffffffffffffffffffffffffffffffff1602179055508173ffffffffffffffffffffffffffffffffffffffff168173ffffffffffffffffffffffffffffffffffffffff167f8be0079c531659141344cd1fd0a4f28419497f9722a3daafe3b4186f6b6457e060405160405180910390a35050565b600081519050919050565b7f4e487b7100000000000000000000000000000000000000000000000000000000600052604160045260246000fd5b7f4e487b7100000000000000000000000000000000000000000000000000000000600052602260045260246000fd5b600060028204905060018216806200021a57607f821691505b60208210810362000230576200022f620001d2565b5b50919050565b60008190508160005260206000209050919050565b60006020601f8301049050919050565b600082821b905092915050565b6000600883026200029a7fffffffffffffffffffffffffffffffffffffffffffffffffffffffffffffffff826200025b565b620002a686836200025b565b95508019841693508086168417925050509392505050565b6000819050919050565b6000819050919050565b6000620002f3620002ed620002e784620002be565b620002c8565b620002be565b9050919050565b6000819050919050565b6200030f83620002d2565b620003276200031e82620002fa565b84845462000268565b825550505050565b600090565b6200033e6200032f565b6200034b81848462000304565b505050565b5b8181101562000373576200036760008262000334565b60018101905062000351565b5050565b601f821115620003c2576200038c8162000236565b62000397846200024b565b81016020851015620003a7578190505b620003bf620003b6856200024b565b83018262000350565b50505b505050565b600082821c905092915050565b6000620003e760001984600802620003c7565b1980831691505092915050565b6000620004028383620003d4565b9150826002028217905092915050565b6200041d8262000198565b67ffffffffffffffff811115620004395762000438620001a3565b5b62000445825462000201565b6200045282828562000377565b600060209050601f8311600181146200048a576000841562000475578287015190505b620004818582620003f4565b865550620004f1565b601f1984166200049a8662000236565b60005b82811015620004c4578489015182556001820191506020850194506020810190506200049d565b86831015620004e45784890151620004e0601f891682620003d4565b8355505b6001600288020188555050505b505050505050565b612d8680620005096000396000f3fe608060405234801561001057600080fd5b50600436106101165760003560e01c8063715018a6116100a2578063b88d4fde11610071578063b88d4fde146102cd578063c87b56dd146102e9578063d0def52114610319578063e985e9c514610349578063f2fde38b1461037957610116565b8063715018a61461026b5780638da5cb5b1461027557806395d89b4114610293578063a22cb465146102b157610116565b806323b872dd116100e957806323b872dd146101b557806328904431146101d157806342842e0e146101ef5780636352211e1461020b57806370a082311461023b57610116565b806301ffc9a71461011b57806306fdde031461014b578063081812fc14610169578063095ea7b314610199575b600080fd5b610135600480360381019061013091906119f2565b610395565b6040516101429190611a3a565b60405180910390f35b610153610477565b6040516101609190611ae5565b60405180910390f35b610183600480360381019061017e9190611b3d565b610509565b6040516101909190611bab565b60405180910390f35b6101b360048036038101906101ae9190611bf2565b61054f565b005b6101cf60048036038101906101ca9190611c32565b610666565b005b6101d96106c6565b6040516101e69190611df7565b60405180910390f35b61020960048036038101906102049190611c32565b6107df565b005b61022560048036038101906102209190611b3d565b6107ff565b6040516102329190611bab565b60405180910390f35b61025560048036038101906102509190611e19565b610885565b6040516102629190611e55565b60405180910390f35b61027361093c565b005b61027d610950565b60405161028a9190611bab565b60405180910390f35b61029b61097a565b6040516102a89190611ae5565b60405180910390f35b6102cb60048036038101906102c69190611e9c565b610a0c565b005b6102e760048036038101906102e29190612011565b610a22565b005b61030360048036038101906102fe9190611b3d565b610a84565b6040516103109190611ae5565b60405180910390f35b610333600480360381019061032e9190612135565b610b77565b6040516103409190611e55565b60405180910390f35b610363600480360381019061035e9190612191565b610bae565b6040516103709190611a3a565b60405180910390f35b610393600480360381019061038e9190611e19565b610c42565b005b60007f80ac58cd000000000000000000000000000000000000000000000000000000007bffffffffffffffffffffffffffffffffffffffffffffffffffffffff1916827bffffffffffffffffffffffffffffffffffffffffffffffffffffffff1916148061046057507f5b5e139f000000000000000000000000000000000000000000000000000000007bffffffffffffffffffffffffffffffffffffffffffffffffffffffff1916827bffffffffffffffffffffffffffffffffffffffffffffffffffffffff1916145b80610470575061046f82610cc5565b5b9050919050565b60606000805461048690612200565b80601f01602080910402602001604051908101604052809291908181526020018280546104b290612200565b80156104ff5780601f106104d4576101008083540402835291602001916104ff565b820191906000526020600020905b8154815290600101906020018083116104e257829003601f168201915b5050505050905090565b600061051482610d2f565b6004600083815260200190815260200160002060009054906101000a900473ffffffffffffffffffffffffffffffffffffffff169050919050565b600061055a826107ff565b90508073ffffffffffffffffffffffffffffffffffffffff168373ffffffffffffffffffffffffffffffffffffffff16036105ca576040517f08c379a00000000000000000000000000000000000000000000000000000000081526004016105c1906122a3565b60405180910390fd5b8073ffffffffffffffffffffffffffffffffffffffff166105e9610d7a565b73ffffffffffffffffffffffffffffffffffffffff161480610618575061061781610612610d7a565b610bae565b5b610657576040517f08c379a000000000000000000000000000000000000000000000000000000000815260040161064e90612335565b60405180910390fd5b6106618383610d82565b505050565b610677610671610d7a565b82610e3b565b6106b6576040517f08c379a00000000000000000000000000000000000000000000000000000000081526004016106ad906123c7565b60405180910390fd5b6106c1838383610ed0565b505050565b606060006106d460076111c5565b905060008167ffffffffffffffff8111156106f2576106f1611ee6565b5b60405190808252806020026020018201604052801561072b57816020015b610718611965565b8152602001906001900390816107105790505b50905060005b8281116107d657610741816111d3565b156107c357600061075182610a84565b905060405180606001604052808381526020018281526020016040518060400160405280600181526020017f20000000000000000000000000000000000000000000000000000000000000008152508152508383815181106107b6576107b56123e7565b5b6020026020010181905250505b80806107ce90612445565b915050610731565b50809250505090565b6107fa83838360405180602001604052806000815250610a22565b505050565b60008061080b83611214565b9050600073ffffffffffffffffffffffffffffffffffffffff168173ffffffffffffffffffffffffffffffffffffffff160361087c576040517f08c379a0000000000000000000000000000000000000000000000000000000008152600401610873906124d9565b60405180910390fd5b80915050919050565b60008073ffffffffffffffffffffffffffffffffffffffff168273ffffffffffffffffffffffffffffffffffffffff16036108f5576040517f08c379a00000000000000000000000000000000000000000000000000000000081526004016108ec9061256b565b60405180910390fd5b600360008373ffffffffffffffffffffffffffffffffffffffff1673ffffffffffffffffffffffffffffffffffffffff168152602001908152602001600020549050919050565b610944611251565b61094e60006112cf565b565b6000600660009054906101000a900473ffffffffffffffffffffffffffffffffffffffff16905090565b60606001805461098990612200565b80601f01602080910402602001604051908101604052809291908181526020018280546109b590612200565b8015610a025780601f106109d757610100808354040283529160200191610a02565b820191906000526020600020905b8154815290600101906020018083116109e557829003601f168201915b5050505050905090565b610a1e610a17610d7a565b8383611395565b5050565b610a33610a2d610d7a565b83610e3b565b610a72576040517f08c379a0000000000000000000000000000000000000000000000000000000008152600401610a69906123c7565b60405180910390fd5b610a7e84848484611501565b50505050565b6060610a8f826111d3565b610ace576040517f08c379a0000000000000000000000000000000000000000000000000000000008152600401610ac5906125d7565b60405180910390fd5b6000600860008481526020019081526020016000208054610aee90612200565b80601f0160208091040260200160405190810160405280929190818152602001828054610b1a90612200565b8015610b675780601f10610b3c57610100808354040283529160200191610b67565b820191906000526020600020905b815481529060010190602001808311610b4a57829003601f168201915b5050505050905080915050919050565b600080610b8460076111c5565b9050610b90848261155d565b610b9a8184611776565b610ba4600761179b565b8091505092915050565b6000600560008473ffffffffffffffffffffffffffffffffffffffff1673ffffffffffffffffffffffffffffffffffffffff16815260200190815260200160002060008373ffffffffffffffffffffffffffffffffffffffff1673ffffffffffffffffffffffffffffffffffffffff16815260200190815260200160002060009054906101000a900460ff16905092915050565b610c4a611251565b600073ffffffffffffffffffffffffffffffffffffffff168173ffffffffffffffffffffffffffffffffffffffff1603610cb9576040517f08c379a0000000000000000000000000000000000000000000000000000000008152600401610cb090612669565b60405180910390fd5b610cc2816112cf565b50565b60007f01ffc9a7000000000000000000000000000000000000000000000000000000007bffffffffffffffffffffffffffffffffffffffffffffffffffffffff1916827bffffffffffffffffffffffffffffffffffffffffffffffffffffffff1916149050919050565b610d38816111d3565b610d77576040517f08c379a0000000000000000000000000000000000000000000000000000000008152600401610d6e906124d9565b60405180910390fd5b50565b600033905090565b816004600083815260200190815260200160002060006101000a81548173ffffffffffffffffffffffffffffffffffffffff021916908373ffffffffffffffffffffffffffffffffffffffff160217905550808273ffffffffffffffffffffffffffffffffffffffff16610df5836107ff565b73ffffffffffffffffffffffffffffffffffffffff167f8c5be1e5ebec7d5bd14f71427d1e84f3dd0314c0f7b2291e5b200ac8c7c3b92560405160405180910390a45050565b600080610e47836107ff565b90508073ffffffffffffffffffffffffffffffffffffffff168473ffffffffffffffffffffffffffffffffffffffff161480610e895750610e888185610bae565b5b80610ec757508373ffffffffffffffffffffffffffffffffffffffff16610eaf84610509565b73ffffffffffffffffffffffffffffffffffffffff16145b91505092915050565b8273ffffffffffffffffffffffffffffffffffffffff16610ef0826107ff565b73ffffffffffffffffffffffffffffffffffffffff1614610f46576040517f08c379a0000000000000000000000000000000000000000000000000000000008152600401610f3d906126fb565b60405180910390fd5b600073ffffffffffffffffffffffffffffffffffffffff168273ffffffffffffffffffffffffffffffffffffffff1603610fb5576040517f08c379a0000000000000000000000000000000000000000000000000000000008152600401610fac9061278d565b60405180910390fd5b610fc08383836117b1565b8273ffffffffffffffffffffffffffffffffffffffff16610fe0826107ff565b73ffffffffffffffffffffffffffffffffffffffff1614611036576040517f08c379a000000000000000000000000000000000000000000000000000000000815260040161102d906126fb565b60405180910390fd5b6004600082815260200190815260200160002060006101000a81549073ffffffffffffffffffffffffffffffffffffffff02191690556001600360008573ffffffffffffffffffffffffffffffffffffffff1673ffffffffffffffffffffffffffffffffffffffff168152602001908152602001600020600082825403925050819055506001600360008473ffffffffffffffffffffffffffffffffffffffff1673ffffffffffffffffffffffffffffffffffffffff16815260200190815260200160002060008282540192505081905550816002600083815260200190815260200160002060006101000a81548173ffffffffffffffffffffffffffffffffffffffff021916908373ffffffffffffffffffffffffffffffffffffffff160217905550808273ffffffffffffffffffffffffffffffffffffffff168473ffffffffffffffffffffffffffffffffffffffff167fddf252ad1be2c89b69c2b068fc378daa952ba7f163c4a11628f55a4df523b3ef60405160405180910390a46111c08383836117b6565b505050565b600081600001549050919050565b60008073ffffffffffffffffffffffffffffffffffffffff166111f583611214565b73ffffffffffffffffffffffffffffffffffffffff1614159050919050565b60006002600083815260200190815260200160002060009054906101000a900473ffffffffffffffffffffffffffffffffffffffff169050919050565b611259610d7a565b73ffffffffffffffffffffffffffffffffffffffff16611277610950565b73ffffffffffffffffffffffffffffffffffffffff16146112cd576040517f08c379a00000000000000000000000000000000000000000000000000000000081526004016112c4906127f9565b60405180910390fd5b565b6000600660009054906101000a900473ffffffffffffffffffffffffffffffffffffffff16905081600660006101000a81548173ffffffffffffffffffffffffffffffffffffffff021916908373ffffffffffffffffffffffffffffffffffffffff1602179055508173ffffffffffffffffffffffffffffffffffffffff168173ffffffffffffffffffffffffffffffffffffffff167f8be0079c531659141344cd1fd0a4f28419497f9722a3daafe3b4186f6b6457e060405160405180910390a35050565b8173ffffffffffffffffffffffffffffffffffffffff168373ffffffffffffffffffffffffffffffffffffffff1603611403576040517f08c379a00000000000000000000000000000000000000000000000000000000081526004016113fa90612865565b60405180910390fd5b80600560008573ffffffffffffffffffffffffffffffffffffffff1673ffffffffffffffffffffffffffffffffffffffff16815260200190815260200160002060008473ffffffffffffffffffffffffffffffffffffffff1673ffffffffffffffffffffffffffffffffffffffff16815260200190815260200160002060006101000a81548160ff0219169083151502179055508173ffffffffffffffffffffffffffffffffffffffff168373ffffffffffffffffffffffffffffffffffffffff167f17307eab39ab6107e8899845ad3d59bd9653f200f220920489ca2b5937696c31836040516114f49190611a3a565b60405180910390a3505050565b61150c848484610ed0565b611518848484846117bb565b611557576040517f08c379a000000000000000000000000000000000000000000000000000000000815260040161154e906128f7565b60405180910390fd5b50505050565b600073ffffffffffffffffffffffffffffffffffffffff168273ffffffffffffffffffffffffffffffffffffffff16036115cc576040517f08c379a00000000000000000000000000000000000000000000000000000000081526004016115c390612963565b60405180910390fd5b6115d5816111d3565b15611615576040517f08c379a000000000000000000000000000000000000000000000000000000000815260040161160c906129cf565b60405180910390fd5b611621600083836117b1565b61162a816111d3565b1561166a576040517f08c379a0000000000000000000000000000000000000000000000000000000008152600401611661906129cf565b60405180910390fd5b6001600360008473ffffffffffffffffffffffffffffffffffffffff1673ffffffffffffffffffffffffffffffffffffffff16815260200190815260200160002060008282540192505081905550816002600083815260200190815260200160002060006101000a81548173ffffffffffffffffffffffffffffffffffffffff021916908373ffffffffffffffffffffffffffffffffffffffff160217905550808273ffffffffffffffffffffffffffffffffffffffff16600073ffffffffffffffffffffffffffffffffffffffff167fddf252ad1be2c89b69c2b068fc378daa952ba7f163c4a11628f55a4df523b3ef60405160405180910390a4611772600083836117b6565b5050565b806008600084815260200190815260200160002090816117969190612b9b565b505050565b6001816000016000828254019250508190555050565b505050565b505050565b60006117dc8473ffffffffffffffffffffffffffffffffffffffff16611942565b15611935578373ffffffffffffffffffffffffffffffffffffffff1663150b7a02611805610d7a565b8786866040518563ffffffff1660e01b81526004016118279493929190612cc2565b6020604051808303816000875af192505050801561186357506040513d601f19601f820116820180604052508101906118609190612d23565b60015b6118e5573d8060008114611893576040519150601f19603f3d011682016040523d82523d6000602084013e611898565b606091505b5060008151036118dd576040517f08c379a00000000000000000000000000000000000000000000000000000000081526004016118d4906128f7565b60405180910390fd5b805181602001fd5b63150b7a0260e01b7bffffffffffffffffffffffffffffffffffffffffffffffffffffffff1916817bffffffffffffffffffffffffffffffffffffffffffffffffffffffff19161491505061193a565b600190505b949350505050565b6000808273ffffffffffffffffffffffffffffffffffffffff163b119050919050565b60405180606001604052806000815260200160608152602001606081525090565b6000604051905090565b600080fd5b600080fd5b60007fffffffff0000000000000000000000000000000000000000000000000000000082169050919050565b6119cf8161199a565b81146119da57600080fd5b50565b6000813590506119ec816119c6565b92915050565b600060208284031215611a0857611a07611990565b5b6000611a16848285016119dd565b91505092915050565b60008115159050919050565b611a3481611a1f565b82525050565b6000602082019050611a4f6000830184611a2b565b92915050565b600081519050919050565b600082825260208201905092915050565b60005b83811015611a8f578082015181840152602081019050611a74565b60008484015250505050565b6000601f19601f8301169050919050565b6000611ab782611a55565b611ac18185611a60565b9350611ad1818560208601611a71565b611ada81611a9b565b840191505092915050565b60006020820190508181036000830152611aff8184611aac565b905092915050565b6000819050919050565b611b1a81611b07565b8114611b2557600080fd5b50565b600081359050611b3781611b11565b92915050565b600060208284031215611b5357611b52611990565b5b6000611b6184828501611b28565b91505092915050565b600073ffffffffffffffffffffffffffffffffffffffff82169050919050565b6000611b9582611b6a565b9050919050565b611ba581611b8a565b82525050565b6000602082019050611bc06000830184611b9c565b92915050565b611bcf81611b8a565b8114611bda57600080fd5b50565b600081359050611bec81611bc6565b92915050565b60008060408385031215611c0957611c08611990565b5b6000611c1785828601611bdd565b9250506020611c2885828601611b28565b9150509250929050565b600080600060608486031215611c4b57611c4a611990565b5b6000611c5986828701611bdd565b9350506020611c6a86828701611bdd565b9250506040611c7b86828701611b28565b9150509250925092565b600081519050919050565b600082825260208201905092915050565b6000819050602082019050919050565b611cba81611b07565b82525050565b600082825260208201905092915050565b6000611cdc82611a55565b611ce68185611cc0565b9350611cf6818560208601611a71565b611cff81611a9b565b840191505092915050565b6000606083016000830151611d226000860182611cb1565b5060208301518482036020860152611d3a8282611cd1565b91505060408301518482036040860152611d548282611cd1565b9150508091505092915050565b6000611d6d8383611d0a565b905092915050565b6000602082019050919050565b6000611d8d82611c85565b611d978185611c90565b935083602082028501611da985611ca1565b8060005b85811015611de55784840389528151611dc68582611d61565b9450611dd183611d75565b925060208a01995050600181019050611dad565b50829750879550505050505092915050565b60006020820190508181036000830152611e118184611d82565b905092915050565b600060208284031215611e2f57611e2e611990565b5b6000611e3d84828501611bdd565b91505092915050565b611e4f81611b07565b82525050565b6000602082019050611e6a6000830184611e46565b92915050565b611e7981611a1f565b8114611e8457600080fd5b50565b600081359050611e9681611e70565b92915050565b60008060408385031215611eb357611eb2611990565b5b6000611ec185828601611bdd565b9250506020611ed285828601611e87565b9150509250929050565b600080fd5b600080fd5b7f4e487b7100000000000000000000000000000000000000000000000000000000600052604160045260246000fd5b611f1e82611a9b565b810181811067ffffffffffffffff82111715611f3d57611f3c611ee6565b5b80604052505050565b6000611f50611986565b9050611f5c8282611f15565b919050565b600067ffffffffffffffff821115611f7c57611f7b611ee6565b5b611f8582611a9b565b9050602081019050919050565b82818337600083830152505050565b6000611fb4611faf84611f61565b611f46565b905082815260208101848484011115611fd057611fcf611ee1565b5b611fdb848285611f92565b509392505050565b600082601f830112611ff857611ff7611edc565b5b8135612008848260208601611fa1565b91505092915050565b6000806000806080858703121561202b5761202a611990565b5b600061203987828801611bdd565b945050602061204a87828801611bdd565b935050604061205b87828801611b28565b925050606085013567ffffffffffffffff81111561207c5761207b611995565b5b61208887828801611fe3565b91505092959194509250565b600067ffffffffffffffff8211156120af576120ae611ee6565b5b6120b882611a9b565b9050602081019050919050565b60006120d86120d384612094565b611f46565b9050828152602081018484840111156120f4576120f3611ee1565b5b6120ff848285611f92565b509392505050565b600082601f83011261211c5761211b611edc565b5b813561212c8482602086016120c5565b91505092915050565b6000806040838503121561214c5761214b611990565b5b600061215a85828601611bdd565b925050602083013567ffffffffffffffff81111561217b5761217a611995565b5b61218785828601612107565b9150509250929050565b600080604083850312156121a8576121a7611990565b5b60006121b685828601611bdd565b92505060206121c785828601611bdd565b9150509250929050565b7f4e487b7100000000000000000000000000000000000000000000000000000000600052602260045260246000fd5b6000600282049050600182168061221857607f821691505b60208210810361222b5761222a6121d1565b5b50919050565b7f4552433732313a20617070726f76616c20746f2063757272656e74206f776e6560008201527f7200000000000000000000000000000000000000000000000000000000000000602082015250565b600061228d602183611a60565b915061229882612231565b604082019050919050565b600060208201905081810360008301526122bc81612280565b9050919050565b7f4552433732313a20617070726f76652063616c6c6572206973206e6f7420746f60008201527f6b656e206f776e6572206f7220617070726f76656420666f7220616c6c000000602082015250565b600061231f603d83611a60565b915061232a826122c3565b604082019050919050565b6000602082019050818103600083015261234e81612312565b9050919050565b7f4552433732313a2063616c6c6572206973206e6f7420746f6b656e206f776e6560008201527f72206f7220617070726f76656400000000000000000000000000000000000000602082015250565b60006123b1602d83611a60565b91506123bc82612355565b604082019050919050565b600060208201905081810360008301526123e0816123a4565b9050919050565b7f4e487b7100000000000000000000000000000000000000000000000000000000600052603260045260246000fd5b7f4e487b7100000000000000000000000000000000000000000000000000000000600052601160045260246000fd5b600061245082611b07565b91507fffffffffffffffffffffffffffffffffffffffffffffffffffffffffffffffff820361248257612481612416565b5b600182019050919050565b7f4552433732313a20696e76616c696420746f6b656e2049440000000000000000600082015250565b60006124c3601883611a60565b91506124ce8261248d565b602082019050919050565b600060208201905081810360008301526124f2816124b6565b9050919050565b7f4552433732313a2061646472657373207a65726f206973206e6f74206120766160008201527f6c6964206f776e65720000000000000000000000000000000000000000000000602082015250565b6000612555602983611a60565b9150612560826124f9565b604082019050919050565b6000602082019050818103600083015261258481612548565b9050919050565b7f555249206e6f74206578697374206f6e20746861742049440000000000000000600082015250565b60006125c1601883611a60565b91506125cc8261258b565b602082019050919050565b600060208201905081810360008301526125f0816125b4565b9050919050565b7f4f776e61626c653a206e6577206f776e657220697320746865207a65726f206160008201527f6464726573730000000000000000000000000000000000000000000000000000602082015250565b6000612653602683611a60565b915061265e826125f7565b604082019050919050565b6000602082019050818103600083015261268281612646565b9050919050565b7f4552433732313a207472616e736665722066726f6d20696e636f72726563742060008201527f6f776e6572000000000000000000000000000000000000000000000000000000602082015250565b60006126e5602583611a60565b91506126f082612689565b604082019050919050565b60006020820190508181036000830152612714816126d8565b9050919050565b7f4552433732313a207472616e7366657220746f20746865207a65726f2061646460008201527f7265737300000000000000000000000000000000000000000000000000000000602082015250565b6000612777602483611a60565b91506127828261271b565b604082019050919050565b600060208201905081810360008301526127a68161276a565b9050919050565b7f4f776e61626c653a2063616c6c6572206973206e6f7420746865206f776e6572600082015250565b60006127e3602083611a60565b91506127ee826127ad565b602082019050919050565b60006020820190508181036000830152612812816127d6565b9050919050565b7f4552433732313a20617070726f766520746f2063616c6c657200000000000000600082015250565b600061284f601983611a60565b915061285a82612819565b602082019050919050565b6000602082019050818103600083015261287e81612842565b9050919050565b7f4552433732313a207472616e7366657220746f206e6f6e20455243373231526560008201527f63656976657220696d706c656d656e7465720000000000000000000000000000602082015250565b60006128e1603283611a60565b91506128ec82612885565b604082019050919050565b60006020820190508181036000830152612910816128d4565b9050919050565b7f4552433732313a206d696e7420746f20746865207a65726f2061646472657373600082015250565b600061294d602083611a60565b915061295882612917565b602082019050919050565b6000602082019050818103600083015261297c81612940565b9050919050565b7f4552433732313a20746f6b656e20616c7265616479206d696e74656400000000600082015250565b60006129b9601c83611a60565b91506129c482612983565b602082019050919050565b600060208201905081810360008301526129e8816129ac565b9050919050565b60008190508160005260206000209050919050565b60006020601f8301049050919050565b600082821b905092915050565b600060088302612a517fffffffffffffffffffffffffffffffffffffffffffffffffffffffffffffffff82612a14565b612a5b8683612a14565b95508019841693508086168417925050509392505050565b6000819050919050565b6000612a98612a93612a8e84611b07565b612a73565b611b07565b9050919050565b6000819050919050565b612ab283612a7d565b612ac6612abe82612a9f565b848454612a21565b825550505050565b600090565b612adb612ace565b612ae6818484612aa9565b505050565b5b81811015612b0a57612aff600082612ad3565b600181019050612aec565b5050565b601f821115612b4f57612b20816129ef565b612b2984612a04565b81016020851015612b38578190505b612b4c612b4485612a04565b830182612aeb565b50505b505050565b600082821c905092915050565b6000612b7260001984600802612b54565b1980831691505092915050565b6000612b8b8383612b61565b9150826002028217905092915050565b612ba482611a55565b67ffffffffffffffff811115612bbd57612bbc611ee6565b5b612bc78254612200565b612bd2828285612b0e565b600060209050601f831160018114612c055760008415612bf3578287015190505b612bfd8582612b7f565b865550612c65565b601f198416612c13866129ef565b60005b82811015612c3b57848901518255600182019150602085019450602081019050612c16565b86831015612c585784890151612c54601f891682612b61565b8355505b6001600288020188555050505b505050505050565b600081519050919050565b600082825260208201905092915050565b6000612c9482612c6d565b612c9e8185612c78565b9350612cae818560208601611a71565b612cb781611a9b565b840191505092915050565b6000608082019050612cd76000830187611b9c565b612ce46020830186611b9c565b612cf16040830185611e46565b8181036060830152612d038184612c89565b905095945050505050565b600081519050612d1d816119c6565b92915050565b600060208284031215612d3957612d38611990565b5b6000612d4784828501612d0e565b9150509291505056fea26469706673582212209faeabd00c425d76b88f92d69c88bfb41f30ca000f467c1dbca625ac530af4ae64736f6c63430008110033",
  "linkReferences": {},
  "deployedLinkReferences": {}
}